:100000000C94B5000C94D2000C94D2000C94D20045
:100010000C94D2000C94D2000C94D2000C94D20018
:100020000C94D2000C94D2000C94900D0C94D2003D
:100030000C94D2000C94D2000C94D2000C94D200F8
:100040000C94D2000C94D2000C94D2000C94D200E8
:100050000C94D2000C94D2000C94D2000C94D200D8
:100060000C94D2000C94D2000C94D2000C94D200C8
:100070000C94D2000C94D2000C94D2000C94D200B8
:100080000C94D2000C94D2000C94D2000C94D200A8
:100090000C94D2000C94D2000C94D2000C94D20098
:1000A0000C94D2000C94D2000C94D20005010906E5
:1000B000A1018501050719E029E715002501750152
:1000C0009508810295017508810105081901290526
:1000D000950575019102950175039101150026FFA3
:1000E000000507190029FF952075088100C006A0AA
:1000F000FF09A1A10185C009A2150026FF0075080E
:1001000095C8B102C00902220001010080FA090469
:100110000000010301010009211101000122590021
:1001200007058103230001120110010000004000B7
:100130002BE5B1020001020001140347006F006FBC
:10014000006E0042006F0061007200640000001445
:100150000347006F006F006E004D0061006E006489
:100160000075000000040309040011241FBECFEF36
:10017000DAE0DEBFCDBF11E0A0E0B1E0E2E2F6E2FE
:1001800002C005900D92AC31B107D9F727E0ACE180
:10019000B1E001C01D92A937B207E1F70E94560FE6
:1001A0000C940F130C9400004091E6025091E7026A
:1001B0004617570718F0AB01672BF1F160E04115C6
:1001C000510521F512C02091DE02222319F12530BC
:1001D000D9F12091E80023FD39C02091E80022FDEB
:1001E00025C02091E80020FD61C06111ECCF1EC048
:1001F000253051F12091E80023FD28C02091E8002E
:1002000022FD14C02091E80020FD22C02091DE02D2
:100210002111EECF82E008958091DE028823D1F390
:10022000853091F08091E80083FD10C08091E80056
:1002300082FFF2CF80E008952091E8002E7720938E
:10024000E80050E040E0BACF83E0089581E00895EF
:100250006091F300A091F200762F6A2F20910001A7
:1002600030E0DB0162177307B0F4FC01681B790B07
:1002700003C0A217B30770F481918093F10041503D
:100280005109DF01A60FB71F2091000130E0411591
:10029000510579F7CF0161E0A217B30709F060E0DB
:1002A0002091E8002E772093E80089CFA091F300F9
:1002B0002091F200BA2FA22F2091000130E0EBCF65
:1002C0002F923F924F925F926F927F928F929F9266
:1002D000AF92BF92CF92DF92EF92FF920F931F9354
:1002E000CF93DF93CDB7DEB764970FB6F894DEBF38
:1002F0000FBECDBF19011C870B87DB018C918823B2
:1003000009F481C0803CD1F080E064960FB6F89487
:10031000DEBF0FBECDBFDF91CF911F910F91FF9038
:10032000EF90DF90CF90BF90AF909F908F907F9095
:100330006F905F904F903F902F900895423021F73B
:100340003A83298340E650E060E070E0C9010E94F2
:10035000C21240E650E060E670E089819A81805ADE
:100360009F4F0E94C21280EC90E00E94D212E9815D
:10037000FA81E054FF4F808381EC90E00E94D2121A
:10038000E981FA81EF53FF4F808382EC90E00E9475
:10039000D212E981FA81EE53FF4F808383EC90E023
:1003A0000E94D212E981FA81ED53FF4F808384ECE1
:1003B00090E00E94D212E981FA81EC53FF4F8083D2
:1003C00085EC90E00E94D212E981FA81EB53FF4F55
:1003D000808386EC90E00E94D212E981FA81EA5390
:1003E000FF4F808387EC90E00E94D21229813A81EE
:1003F00029533F4FD9018C9388EC90E0F801918309
:10040000808381E082CF41117FCF81E0FB01808337
:1004100010927807809103019091040120910101CD
:100420003091020130930401209303019093020163
:100430008093010180E28BB911BA65E1862E61E0FB
:10044000962E712C612C412C55245A94EE24E39461
:10045000388A2F8640E180E0940125513140229571
:100460003295307F3227207F3227F901E05DFA4F45
:10047000B90160577A4F6B01D901A15BBC4FBA83B8
:10048000A983B901605F784FD901A05BB94FBA8BDE
:10049000A98BD901A05FBB4FBC83AB83D901A2510B
:1004A000BD4FBE87AD87D901A059BB4FB887AF8379
:1004B000D901A055BC4FBA87A987D901A053BB4F1A
:1004C000BE83AD83D901A051BA4F5D01D4019C9187
:1004D000891708F042C02E985EBC0DB407FEFDCF10
:1004E0002EB55EBC0DB407FEFDCF3EB52E9A0F9320
:1004F0000FB70F93331F221F0F910FBF0F9151E0C2
:10050000580F41BB90E0A0910301B0910401A60DEA
:10051000B71DA80FB91F2C9327FD18C0369B3FC2EB
:10052000D501A80FB91F1C91A989BA89A80FB91FB5
:100530003C91A32FA21BBB0B9D01860F971FDC01D3
:100540001217130609F00CF490C21C92405F852F1D
:10055000D4019C91891708F4BECF439411BA842D1D
:1005600080628BB9BFEF8B1A9B0AE0E16E0E711CA3
:10057000F6E04F126FCF2F84388880917707813053
:1005800009F469C380917307813009F41AC3E0E16B
:10059000F7E090E080E020917807203208F0E8C191
:1005A00020812223B1F04091780721E0240F20938D
:1005B0007807BC0162957295707F7627607F7627F9
:1005C0006055794FDB012C91D101A40FB11D12961A
:1005D0002C9320917807203208F0CAC12181222370
:1005E000B9F04091780721E0240F20937807BC01EF
:1005F00062957295707F7627607F76276055794F78
:10060000DB0111962C91D101A40FB11D12962C93F0
:1006100020917807203208F0ABC122812223B9F063
:100620004091780721E0240F20937807BC01629560
:100630007295707F7627607F76276055794FDB0152
:1006400012962C91D101A40FB11D12962C932091DA
:100650007807203208F08CC123812223B9F0409121
:10066000780721E0240F20937807BC0162957295EA
:10067000707F7627607F76276055794FDB01139670
:100680002C91D101A40FB11D12962C9320917807C3
:10069000203208F06DC124812223B9F040917807FF
:1006A00021E0240F20937807BC0162957295707F3A
:1006B0007627607F76276055794FDB0114962C9161
:1006C000D101A40FB11D12962C93209178072032EE
:1006D00008F04EC125812223B9F04091780721E02E
:1006E000240F20937807BC0162957295707F76275E
:1006F000607F76276055794FDB0115962C91D101EB
:10070000A40FB11D12962C9320917807203208F087
:100710002FC126812223B9F04091780721E0240FD0
:1007200020937807BC0162957295707F7627607F71
:1007300076276055794FDB0116962C91D101A40FD5
:10074000B11D12962C9320917807203208F010C129
:1007500027812223B9F04091780721E0240F2093CC
:100760007807BC0162957295707F7627607F762747
:100770006055794FDB0117962C91D101A40FB11D63
:1007800012962C9320917807203208F0F1C0208532
:100790002223B9F04091780721E0240F20937807B5
:1007A000BC0162957295707F7627607F76276055D1
:1007B000794FDB0118962C91D101A40FB11D12962F
:1007C0002C9320917807203208F0D2C02185222373
:1007D000B9F04091780721E0240F20937807BC01FD
:1007E00062957295707F7627607F76276055794F86
:1007F000DB0119962C91D101A40FB11D12962C93F7
:1008000020917807203208F0B3C022852223B9F066
:100810004091780721E0240F20937807BC0162956E
:100820007295707F7627607F76276055794FDB0160
:100830001A962C91D101A40FB11D12962C932091E0
:100840007807203208F094C023852223B9F0409124
:10085000780721E0240F20937807BC0162957295F8
:10086000707F7627607F76276055794FDB011B9676
:100870002C91D101A40FB11D12962C9320917807D1
:10088000203208F075C024852223B9F04091780702
:1008900021E0240F20937807BC0162957295707F48
:1008A0007627607F76276055794FDB011C962C9167
:1008B000D101A40FB11D12962C93209178072032FC
:1008C00008F056C025852223B9F04091780721E031
:1008D000240F20937807BC0162957295707F76276C
:1008E000607F76276055794FDB011D962C91D101F1
:1008F000A40FB11D12962C93209178072032C0F5D9
:1009000026852223B9F04091780721E0240F209317
:100910007807BC0162957295707F7627607F762795
:100920006055794FDB011E962C91D101A40FB11DAA
:1009300012962C93209178072032D0F42785222319
:10094000B9F04091780721E0240F20937807BC018B
:1009500062957295707F7627607F76276055794F14
:10096000DB011F962C91D101A40FB11D12962C937F
:10097000019670968630910509F00DCE809177072B
:10098000813009F413C180917307813009F403C1E8
:1009900082E290E0EB85FC8591838083B5CCA091C9
:1009A0000101B0910201A60DB71DA80FB91F3C901F
:1009B000DF01A80FB91FBC8BAB8BFC90231509F48A
:1009C00056C0A22FB0E0BC8BAB8B231508F06FC0D4
:1009D0008601080F191FD8011C922B813C81280F1A
:1009E000391FD9011C9101E0010F1111CCC00985FB
:1009F0001A85080F191FD8013C92D901EC92B1E079
:100A0000FB1609F4B2C01091AF03232D30E0AB897F
:100A1000BC892A1B3B0B121713060CF0A6C02981B8
:100A20003A81280F391FD9011C929F01280F391FC5
:100A3000D901EC9229853A85280F391FD9012C91CB
:100A40000D811E81080F191FD8012C9310914E03A0
:100A500030E0AB89BC892A1B3B0B1217130611F03F
:100A60000CF074CD860F971FDC01EC926FCD8601E0
:100A7000080F191FD8013C913F5F3C93B2E0FB1671
:100A800009F464CD333208F461CDD8011C9232E010
:100A9000AB89BC893C93AD81BE81A80FB91F2C9353
:100AA000AF81B8858A0F9B1FDC012C934FCD960137
:100AB000280F391FD9011C9229813A81280F391F2B
:100AC000D9011C9101E0010F111156C00D851E8541
:100AD000080F191FD8013C92D901EC92FF20F1F1C7
:100AE0001091AF032B893C89231931091217130682
:100AF000ACF52B813C81280F391FD9011C929F0135
:100B0000280F391FD9011C922D853E85280F391FCA
:100B1000D9011C912F813885280F391FD9011C93C9
:100B200000914E032B893C89211B310902171306C2
:100B300089F084F010914E0329893A89280F391FD2
:100B4000D9012C91211B330BAB89BC89A217B307A8
:100B50000CF4FCCC860F971FDC01F7CC2F81388575
:100B6000280F391FD9011C91DBCF2D813E81280F21
:100B7000391FD9012C916ACF0C93FF2079F30330F0
:100B800008F0B7CFADCF0C93B1E0FB1671F3033093
:100B900008F045CF38CF90917007992309F4F8CE2B
:100BA000E0917107F09172078083F2CE9091740703
:100BB000992309F4E8CEE0917507F09176078083D8
:100BC000E2CE8091EA022091EA0290E02F70807FCD
:100BD0009927805F984F820F911DFC0180818130A1
:100BE00009F496C08091EA022091EA0290E02F7009
:100BF000807F9927805F984F820F911DFC01808133
:100C0000811111C02091E9029091E90230E09F70BA
:100C1000207F3327205F384F290F311DD9019C9148
:100C2000913009F4E8C08091EA022091EA0290E054
:100C30002F70807F9927805F984F820F911DFC0154
:100C40008081813009F4A8C08FEF8093E80280E0B2
:100C5000809370079CCC8091ED022091ED0290E092
:100C60002F70807F9927805F984F820F911DFC0124
:100C700080818130C1F18091ED022091ED0290E000
:100C80002F70807F9927805F984F820F911DFC0104
:100C90008081811111C02091EC029091EC0230E032
:100CA0009F70207F3327205F384F290F311DD901D6
:100CB0009C91913009F4A2C08091ED022091ED0247
:100CC00090E02F70807F9927805F984F820F911D51
:100CD000FC018081813089F18FEF8093EB0280E00D
:100CE000809374074FCC8091EC022091EC0290E04D
:100CF0002F70807F9927805F984F820F911DDC01B4
:100D00008C918111B8CF9091ED029093EB02E8CFD6
:100D10008091E9022091E90290E02F70807F99276D
:100D2000805F984F820F911DDC018C9181115ACF09
:100D30009091EA029093E8028BCF8091EC0220918F
:100D4000EC0290E02F70807F9927805F984F820F90
:100D5000911DDC018C91813009F0BECF9091EB02A6
:100D60009F3F09F4BCCF292F22952F709F70492FE8
:100D700050E0B0E12B9F90011124F901E05FF84FA2
:100D8000E40FF51F1082240F351F205F384F30937A
:100D9000760720937507A4CF8091E9022091E9029C
:100DA00090E02F70807F9927805F984F820F911D70
:100DB000DC018C91813009F047CF9091E8029F3F90
:100DC00009F445CF292F22952F709F70492F50E0AD
:100DD000B0E12B9F90011124F901E05FF84FE40F7F
:100DE000F51F1082240F351F205F384F3093720794
:100DF000209371072DCF9091E9029CCF9091EC0246
:100E000084CFAF92BF92CF92DF92EF92FF920F9377
:100E10001F93CF93DF93CDB7DEB7AB970FB6F894A0
:100E2000DEBF0FBECDBFEDB6FEB69091F100909340
:100E3000E0028091F1008093E1022091F100209383
:100E4000E2021091F1001093E3023091F10030932F
:100E5000E4023091F1003093E5023091F1003093DB
:100E6000E6023091F1003093E7023091E80033FF61
:100E70000AC0309105014091E4025091E502341717
:100E8000150609F43EC08091E80083FD24C08091DE
:100E9000E80083FF0AC08091E800877F8093E80024
:100EA0008091EB0080628093EB000FB6F894FEBE59
:100EB0000FBEEDBEAB960FB6F894DEBF0FBECDBF32
:100EC000DF91CF911F910F91FF90EF90DF90CF9026
:100ED000BF90AF9008959091E0028091E1028A3036
:100EE000B0F6E82FF0E0E958F84F0C94EC128308C4
:100EF000BC084707BC084707510806084707E10731
:100F00009607833009F431C108F47DC18A3009F4B1
:100F1000A0C38B3009F48FC1893009F0B4CF91326E
:100F200009F441C48091E80083FFB1CF9111AFCFA4
:100F30008091E202E8E3F1E0E491E81708F4A7CF3A
:100F40002091E800277F2093E8008093DF02209122
:100F5000E00227FF05C014C22091DE02222359F0CF
:100F60002091E80020FFF8CF8091E8008E778093F1
:100F7000E8008091DF028111CAC48091E30087FDFF
:100F8000C6C481E08093DE02EEE0F1E087E0DF019D
:100F90001D928A95E9F781E080930E0124EF31E0FC
:100FA000309312012093110183E080930901809115
:100FB000060181111FC28091E20084608093E200EB
:100FC00066CF903809F063CF8091E800877F8093E7
:100FD000E8008091DF028093F1008091E8008E7735
:100FE0008093E8008091E00287FF06C0BFC1809136
:100FF000DE02882309F44BCF8091E80080FFF7CF11
:101000008091E8008E778093E80041CF905892302D
:1010100008F03DCF8091E2029091E3028C3DB3E075
:101020009B0709F409C4292F33272330310509F41C
:101030009BC408F433C42132310509F4A8C4223218
:10104000310509F024CF89E590E02CEA30E04091A9
:10105000E800477F4093E8004091E6025091E702A4
:101060008417950708F4AC0170E04115510509F0AB
:10107000ABC114C08091DE02882309F4D8C085304A
:1010800009F4D5C08091E80083FDD1C08091E800CB
:1010900082FDABC18091E80080FD09C57111EACFE6
:1010A000A4C19111F4CE9091E2029F778091E30068
:1010B0008078892B8093E3008091E800877F80937C
:1010C000E8008091E00287FF05C039C18091DE020F
:1010D000882349F08091E80080FFF8CF8091E800F4
:1010E0008E778093E8008091E80080FFFCCF8091AC
:1010F000E30080688093E30083E0911101C082E007
:101100008093DE02C4CE903809F4DDC2923809F033
:10111000BECE8091E4028F70873008F0B8CE809305
:10112000E9008091EB0085FB882780F91092E900A7
:101130009091E800977F9093E8008093F1001092DF
:10114000F1008091E8008E778093E8008091E002C2
:1011500087FF06C001C18091DE02882309F497CE83
:101160008091E80080FFF7CF4BCF913A09F4B4C2E9
:101170002091E80023FF8BCE992309F4CFC0923051
:1011800009F085CE8091E202811127C08091E402AE
:101190008F709FEF980F963008F079CE8093E9001A
:1011A0009091EB0090FF19C09091E102933009F407
:1011B0003EC49091EB0090619093EB0021E030E011
:1011C00001C0220F8A95EAF72093EA001092EA0004
:1011D0008091EB0088608093EB001092E900809191
:1011E000E800877F8093E8008091E00287FF06C0D7
:1011F0001AC08091DE02882309F449CE8091E8006C
:1012000080FFF7CFFDCE8130C1F1823009F03BCEB7
:10121000913A09F494C28091E80039CE8091DE02BF
:10122000882309F434CE8091E80082FFF7CF8091C3
:10123000E8008B77E8CE913271F78091E800877FE4
:101240008093E8008091E00287FF05C0A6C08091EE
:10125000DE02882349F08091E80080FFF8CF80917A
:10126000E8008E778093E8009091E20281E091118E
:1012700001C080E080930E0106CE913A09F078CF4C
:10128000ADB6BEB61A8219822BA740910D0150E06F
:101290008DB79EB7841B950B0FB6F8949EBF0FBEFB
:1012A0008DBFADB7BEB711966D0170E060E0CD01A6
:1012B0000E9408134FEF410F8E010F5F1F4F9601E1
:1012C000BE01655D7F4F85E091E00E9460018091E5
:1012D0000B0190910C01009731F040910D0150E00D
:1012E000B6010E94FF121092E9008091E800877F0A
:1012F0008093E8008BA581118093F10069817A8148
:10130000C6010E94D4008091E8008B778093E800AA
:101310000FB6F894BEBE0FBEADBEB5CD9091E20241
:10132000913009F0B4CD91E0833009F090E09093D2
:10133000DD0253CF8091DE02882309F4D4CE809160
:10134000E80082FFF7CF8091E8008B77CACE8091CA
:10135000DE02882309F49BCD8091E80082FFF7CF5D
:1013600066CF8091DE02882309F491CD8091E80058
:1013700082FFF7CF5CCF2091DE02222309F4FBCD60
:101380002091E80022FFF7CF8091E8008B77EFCD26
:101390008091DE02882309F467CF8091E80082FF04
:1013A000F7CF8091E8008B775DCF853009F43FCF90
:1013B0008091E80083FD3BCF8091E80082FD15C05D
:1013C0008091E80080FD87C38091DE028111EDCF1E
:1013D0002ECF8091DE02882309F429CF853009F4CD
:1013E00026CF8091E80083FD22CF8091E80082FF24
:1013F000F0CF1DCF20910A014091070150910801C3
:10140000682F6F70673008F0D6CD223008F4C8C15D
:1014100026E076E04930510560F028E030E09F5F3B
:10142000220F331F24173507D0F39295907F292F71
:10143000272B881F8827881F806C6093E900909174
:10144000EB009E7F9093EB009091ED009D7F909339
:10145000ED009091EB0091609093EB008093EC0095
:101460002093ED001092F0008091EE0087FFA3CD55
:1014700081E0860F873009F4E9C08093E90030915C
:10148000EC008091ED002091F00081FF19C0909157
:10149000EB009E7F9093EB009091ED009D7F9093E9
:1014A000ED009091EB0091609093EB003093EC0095
:1014B0008093ED002093F0008091EE0087FF7BCDBC
:1014C00082E0860F873009F4C1C08093E900309133
:1014D000EC008091ED002091F00081FF19C0909107
:1014E000EB009E7F9093EB009091ED009D7F909399
:1014F000ED009091EB0091609093EB003093EC0045
:101500008093ED002093F0008091EE0087FF53CD93
:1015100083E0860F873009F499C08093E900309109
:10152000EC009091ED002091F00091FF19C08091A6
:10153000EB008E7F8093EB008091ED008D7F809398
:10154000ED008091EB0081608093EB003093EC0024
:101550009093ED002093F0008091EE0087FF2BCD5B
:1015600084E0860F873009F471C08093E9003091E0
:10157000EC009091ED002091F00091FF19C0809156
:10158000EB008E7F8093EB008091ED008D7F809348
:10159000ED008091EB0081608093EB003093EC00D4
:1015A0009093ED002093F0008091EE0087FF03CD33
:1015B00085E0860F873009F449C08093E9003091B7
:1015C000EC009091ED002091F00091FF19C0809106
:1015D000EB008E7F8093EB008091ED008D7F8093F8
:1015E000ED008091EB0081608093EB003093EC0084
:1015F0009093ED002093F0008091EE0087FFDBCC0C
:10160000611124C086E08093E9003091EC00909154
:10161000ED002091F00091FF19C08091EB008E7FCA
:101620008093EB008091ED008D7F8093ED008091A1
:10163000EB0081608093EB003093EC009093ED0021
:101640002093F0008091EE0087FFB5CC6093E90015
:10165000B2CC913209F0DFCD8091E800877F809392
:10166000E8008091E00287FF05C025C08091DE027E
:10167000882349F08091E80080FFF8CF8091E8004E
:101680008E778093E8008091E2029091E30200243B
:10169000880F991F001C880F991F001C892F902DFF
:1016A0008C7F93709093120180931101ECCB809109
:1016B000DE02882341F38091E80082FFF8CF809119
:1016C000E8008B77DECF8091DC029091DD029923D8
:1016D00009F42ECD82602CCD8091E800877F809325
:1016E000E8008091E80080FFFCCF80910E0180939C
:1016F000F1008091E8008E778093E8008091E0020D
:1017000087FF06C014C08091DE02882309F4BBCB9A
:101710008091E80080FFF7CF8091E8008E7780937A
:10172000E800B1CB8091DE02882309F4ACCB809134
:10173000E80082FFF7CF8091E8008B77F0CF8091AF
:10174000E800877F8093E8008091E80080FFFCCF6D
:1017500080911101909112019695879596958795A4
:101760008093F1008091E8008E778093E80080916B
:10177000E00287FF06C00FC08091DE02882309F4D3
:1017800082CB8091E80080FFF7CFC6CF8091DE0248
:10179000882309F478CB8091E80082FFF7CFCBCF84
:1017A00022E072E037CECDB6DEB64091E60250912F
:1017B000E702EDB7FEB7E41BF50B0FB6F894FEBFDA
:1017C0000FBEEDBF31968091E800877F8093E800DF
:1017D0004115510509F09DC08091E8008B778093F9
:1017E000E80006C08091DE02882331F0853021F0C8
:1017F0008091E80080FFF6CF8091E8008E7780939B
:10180000E80001E0211101C000E00E0F1F2F111DA3
:10181000213A09F4C6C008F44EC0203B09F4E3C0E5
:10182000213B21F44430510509F41BC10FB6F89453
:10183000DEBE0FBECDBE27CB83E08A838AE28983DA
:101840005FB7F894DE01139680E09EE041E207C0A6
:10185000295C3F4F2D933D938F5F843191F0E92FA9
:10186000F0E040935700E49180FF03C0E295EF70F1
:101870009F5FEF702E2F30E0EA3050F7205D3F4F32
:10188000E9CF5FBF8091E800877F8093E8006AE23C
:1018900070E0CE0101960E94D400C9CC2130310500
:1018A00009F47AC02230310509F0F1CA82E290E0F1
:1018B00025E031E0CCCB213009F4BDC0203A09F05D
:1018C000B5CF4430510509F0B1CFF8018081F0E186
:1018D0008F9F90011124D80111968C911197820F3E
:1018E000932F911D12966C91805090400E94DA12B5
:1018F000F801808121813281F0E18F9FC0011124A4
:101900008055994F820F911DDC013C938FCF84E06D
:1019100039CBDF01BA010BC0853009F46DCF80915E
:10192000E80083FD69CF8091E80082FD05C08091C9
:10193000DE028111F1CF60CF8091F3009091F2002F
:10194000892798278927892B31F08091F1008D9381
:101950006150710989F78091E8008B778093E800E6
:101960006115710521F744CF99278130910509F45C
:101970009BC008F496C0029709F089CAE9E3F1E038
:10198000849190E09F01009709F481CA60CB89E0BF
:1019900090E027E131E05BCB82E190E027E231E0AB
:1019A00056CB4430510509F041CFF8018081F0E178
:1019B0008F9F90011124D80111968C911197820F5D
:1019C000932F911D12966C91805A9F4F0E94DA12AC
:1019D000F801808121813281F0E18F9FC0011124C3
:1019E00080519A4F8FCF4430510509F01FCFF80135
:1019F000B280A180608182EC90E00E94DA126A2DB0
:101A000083EC90E00E94DA126B2D84EC90E00E944F
:101A1000DA12D8018C918093770711968C911197E7
:101A20008093ED0212968C918093EC02FFCE809110
:101A3000EB008062D0CBD8018C9180FF0CC02C9A37
:101A4000F801808181FF0BC0769AD8018C9182FFCA
:101A500004C02D9AEBCE2C98F3CF2D98E7CE769834
:101A6000F4CFF801B280A180608185EC90E00E9403
:101A7000DA126A2D86EC90E00E94DA126B2D87EC68
:101A800090E00E94DA12D8018C918093730711962E
:101A90008C9111978093EA0212968C918093E902BF
:101AA000C5CEE5E6F1E06CCFEFE4F1E069CF8091DF
:101AB000F3009091F200892798278927609100010F
:101AC00071E06817190609F070E08091E8008E77E0
:101AD0008093E800CACA8091F3009091F2008927B0
:101AE0009827892760910001DC01A21BB30B6817BE
:101AF000190631F328F3F90184918093F1002F5FE7
:101B00003F4F41505109C9018A0F9B1F609100014D
:101B100041155105A9F26817190609F060F7D0CFF1
:101B20001F920F920FB60F9211242F933F934F9352
:101B30005F938F939F938091E10082FF04C0809117
:101B4000E20082FD85C18091DA0080FF04C08091AF
:101B5000D80080FD69C18091E10080FF04C08091C0
:101B6000E20080FD87C18091E10084FF2AC080915E
:101B7000E20084FF26C080E189BD82E189BD09B40D
:101B800000FEFDCF8091D8008F7D8093D80080919A
:101B9000E1008F7E8093E1008091E2008F7E809350
:101BA000E2008091E20081608093E2008091DF0298
:101BB000811174C18091E30087FD76C181E080933B
:101BC000DE028091E10083FF24C18091E20083FF67
:101BD00020C18091E100877F8093E10082E08093C3
:101BE000DE021092DF028091E1008E7F8093E1009F
:101BF0008091E2008E7F8093E2008091E20080611C
:101C00008093E2004091000150E022E0493051050C
:101C100060F088E090E020E02F5F880F991F841724
:101C20009507D0F32295207F22601092E9008091E1
:101C3000EB008E7F8093EB008091ED008D7F809391
:101C4000ED008091EB0081608093EB001092EC003E
:101C50002093ED001092F0008091EE0087FFD9C034
:101C600081E08093E9003091EC008091ED002091BB
:101C7000F00081FF19C09091EB009E7F9093EB00E4
:101C80009091ED009D7F9093ED009091EB0091601D
:101C90009093EB003093EC008093ED002093F000E4
:101CA0008091EE0087FFB5C082E08093E90030911B
:101CB000EC009091ED002091F00091FF19C080910F
:101CC000EB008E7F8093EB008091ED008D7F809301
:101CD000ED008091EB0081608093EB003093EC008D
:101CE0009093ED002093F0008091EE0087FF91C06B
:101CF00083E08093E9003091EC008091ED00209129
:101D0000F00081FF19C09091EB009E7F9093EB0053
:101D10009091ED009D7F9093ED009091EB0091608C
:101D20009093EB003093EC008093ED002093F00053
:101D30008091EE0087FF6DC084E08093E9003091D0
:101D4000EC009091ED002091F00091FF19C080917E
:101D5000EB008E7F8093EB008091ED008D7F809370
:101D6000ED008091EB0081608093EB003093EC00FC
:101D70009093ED002093F0008091EE0087FF49C022
:101D800085E08093E9003091EC009091ED00209186
:101D9000F00091FF19C08091EB008E7F8093EB00E3
:101DA0008091ED008D7F8093ED008091EB0081604C
:101DB0008093EB003093EC009093ED002093F000C3
:101DC0008091EE0087FF25C086E08093E900309186
:101DD000EC008091ED002091F00081FF18C09091FF
:101DE000EB009E7F9093EB009091ED009D7F909390
:101DF000ED009091EB0091609093EB003093EC003C
:101E00008093ED002093F0008091EE0087FD10920A
:101E1000E9009F918F915F914F913F912F910F908A
:101E20000FBE0F901F9018958091DA008E7F8093DF
:101E3000DA008091D90080FF33C080E189BD82E162
:101E400089BD09B400FEFDCF81E08093DE0283CE20
:101E50008091E1008B7F8093E1008091130190914C
:101E60001401009709F46FCE0197909314018093A9
:101E7000130169CE8091E2008E7F8093E200809111
:101E8000E20080618093E2008091D80080628093BC
:101E9000D80019BC85E08093DE0265CE84E08FCE49
:101EA00019BC1092DE0257CE83E089CECF93DF9328
:101EB00000D01F92CDB7DEB784B7877F84BF0FB63F
:101EC000F894A895809160008861809360001092DA
:101ED00060000FBE80E830E020E00FB6F8948093F9
:101EE0006100209361000FBE8091D8008F7E8093A7
:101EF000D8008091D70081608093D70084E082BFB2
:101F000081E08093DB028091D8008E7F8093D8009F
:101F10001092E2001092DA001092E1008091D80055
:101F20008F778093D8008091D80080688093D80004
:101F30008091D8008F7D8093D80019BC1092DE026A
:101F40001092DF021092DD021092DC02EEE2F1E06C
:101F5000E491E09300018091E0008B7F8093E000AA
:101F60008091D80081608093D8002091000130E0FA
:101F700080E02930310548F048E050E080E08F5F94
:101F8000440F551F42175307D0F38295807F82601C
:101F90001092E9009091EB009E7F9093EB0090915E
:101FA000ED009D7F9093ED009091EB0091609093F8
:101FB000EB001092EC008093ED001092F000809105
:101FC000EE0087FFD9C081E08093E9003091EC00FA
:101FD0009091ED002091F00091FF19C08091EB00ED
:101FE0008E7F8093EB008091ED008D7F8093ED00DC
:101FF0008091EB0081608093EB003093EC00909334
:10200000ED002093F0008091EE0087FFB5C082E0E4
:102010008093E9003091EC009091ED002091F00068
:1020200091FF19C08091EB008E7F8093EB0080912F
:10203000ED008D7F8093ED008091EB0081608093B7
:10204000EB003093EC009093ED002093F000809132
:10205000EE0087FF91C083E08093E9003091EC00AF
:102060009091ED002091F00091FF19C08091EB005C
:102070008E7F8093EB008091ED008D7F8093ED004B
:102080008091EB0081608093EB003093EC009093A3
:10209000ED002093F0008091EE0087FF6DC084E09A
:1020A0008093E9003091EC009091ED002091F000D8
:1020B00091FF19C08091EB008E7F8093EB0080919F
:1020C000ED008D7F8093ED008091EB008160809327
:1020D000EB003093EC009093ED002093F0008091A2
:1020E000EE0087FF49C085E08093E9003091EC0065
:1020F0009091ED002091F00091FF19C08091EB00CC
:102100008E7F8093EB008091ED008D7F8093ED00BA
:102110008091EB0081608093EB003093EC00909312
:10212000ED002093F0008091EE0087FF25C086E04F
:102130008093E9003091EC009091ED002091F00047
:1021400091FF18C08091EB008E7F8093EB0080910F
:10215000ED008D7F8093ED008091EB008160809396
:10216000EB003093EC009093ED002093F000809111
:10217000EE0087FD1092E9008091E1008E7F809350
:10218000E1008091E20081608093E2008091E200B2
:1021900088608093E2008091E0008E7F8093E00071
:1021A0008091D80080618093D8003E98469A84B18F
:1021B000866484B923982E9A8CE58CBD8DB5816098
:1021C0008DBD8AB18F618AB980B3806F80BB6E9AF2
:1021D00084B1806384B9769885B18F7C85B940E6F7
:1021E00050E060E070E080EB96E00E94C21240E6B2
:1021F00050E060E670E080EF95E00E94C21280EC53
:1022000090E00E94D21280934E0381EC90E00E94F5
:10221000D2128093AF0382EC90E00E94D21280939E
:10222000770783EC90E00E94D2128093ED0284EC59
:1022300090E00E94D2128093EC0285EC90E00E9424
:10224000D2128093730786EC90E00E94D2128093A2
:10225000EA0287EC90E00E94D2128093E9022E9865
:102260008FEF8EBD0DB407FEFDCF8EB58FEF8EBD07
:102270000DB407FEFDCF8EB52E9A85E08A95F1F755
:10228000000080E28BB911BA0000000000000000DD
:10229000000000000000000000000000E0E5F6E0A3
:1022A000A0E04FEFBF01605F7F4F30E12E984EBD41
:1022B0000DB407FEFDCF8EB590E0880F991F4EBD7F
:1022C0000DB407FEFDCF5EB521E0503809F020E0E7
:1022D000822B81932E9A31BB000000000000000089
:1022E000000000000000000000000000305F6E17DA
:1022F0007F0709F0DBCFAF5F8A2F80628BB911BAFD
:10230000A63009F0CFCF209A559A289A5D9A7894F2
:102310008091DE028430C1F08091DE028823C1F317
:102320001091E9001F708091EC0080FD1068109200
:10233000E9008091E80083FD17C11F701093E90048
:102340008091DE02843041F78091E4009091E500B5
:1023500020910F013091100128173907E9F280917F
:1023600006018F708093E9008091E80085FFD4CF4B
:10237000CDB6DEB640910D0150E0EDB7FEB7E41BDF
:10238000F50B0FB6F894FEBF0FBEEDBF8DB79EB72D
:1023900001965C017C011B821A82198270E060E068
:1023A0000E9408138E010F5F1F4F950140E0BE0190
:1023B0006D5F7F4F85E091E00E946001782E8091F3
:1023C000110190911201009709F46DC06624639485
:1023D0002091130130911401232B09F064C0009166
:1023E0000B0110910C0149815A810115110509F465
:1023F000BEC0B801C5010E94F2124C0140910D010E
:1024000050E0B501C8010E94FF1289819A81892B91
:10241000E1F1711003C0892809F4AEC08091110167
:102420009091120190931401809313018091060101
:102430008F708093E9008B8181118093F10040912E
:10244000E4005091E50025E68091EC0080FF2DC06E
:102450008091E80080FD2DC08091DE02882381F00C
:10246000853071F08091EB0085FD0AC08091E40019
:102470009091E5008417950739F32150AC0121F7BD
:102480008091E8008E778093E8008091E40090913D
:10249000E5009093100180930F010FB6F894DEBE13
:1024A0000FBECDBE39CF612C9ACF8091E80082FF5C
:1024B000D3CF09811A8107C0F70181917F018093F1
:1024C000F1000150110901151105D1F28091E800C8
:1024D00085FDF2CF8091E8008E778093E8008091AF
:1024E000DE028823A1F08091E9008F70B82E8091E0
:1024F000EC0080FF02C06894B7F81092E900809168
:10250000E80083FD3CC08B2D8F708093E9004091E3
:10251000E4005091E50025E68091EC0080FF1FC0AB
:102520008091E80080FDD2CF8091DE02882309F4FB
:10253000A7CF853009F4A4CF8091EB0085FDA0CF13
:102540008091E4009091E5008417950729F32150CC
:10255000AC0109F495CF8091EC0080FDE1CF809132
:10256000E80082FFE1CFB2CF0E940107E6CE452B03
:1025700009F48BCF711056CF611050CF86CF0E94D7
:102580000107C1CFDC01CB01FC01F999FECF06C0E8
:10259000F2BDE1BDF89A319600B40D924150504021
:1025A000B8F70895F999FECF92BD81BDF89A9927A1
:1025B00080B50895262FF999FECF92BD81BDF89A76
:1025C000019700B4021639F01FBA20BD0FB6F89477
:1025D000FA9AF99A0FBE0895EE0FFF1F0590F49135
:1025E000E02D0994FB01DC0104C08D91019080195C
:1025F00021F441505040C8F7881B990B0895FB0106
:10260000DC0102C001900D9241505040D8F708956E
:10261000DC0101C06D9341505040E0F70895F894FB
:02262000FFCFEA
:10262200081C017C01008123000001DC01FF000085
:0C26320000000000000D0F0F0E0E0A004B
:00000001FF
